{
  "_format": "hh-sol-artifact-1",
  "contractName": "CricketBetting",
  "sourceName": "contracts/CricketBetting.sol",
  "abi": [
    {
      "inputs": [],
      "stateMutability": "nonpayable",
      "type": "constructor"
    },
    {
      "anonymous": false,
      "inputs": [
        {
          "indexed": true,
          "internalType": "uint256",
          "name": "betId",
          "type": "uint256"
        },
        {
          "indexed": true,
          "internalType": "uint256",
          "name": "matchId",
          "type": "uint256"
        },
        {
          "indexed": true,
          "internalType": "address",
          "name": "bettor",
          "type": "address"
        },
        {
          "indexed": false,
          "internalType": "enum CricketBetting.BetChoice",
          "name": "choice",
          "type": "uint8"
        },
        {
          "indexed": false,
          "internalType": "uint256",
          "name": "amount",
          "type": "uint256"
        }
      ],
      "name": "BetPlaced",
      "type": "event"
    },
    {
      "anonymous": false,
      "inputs": [
        {
          "indexed": true,
          "internalType": "uint256",
          "name": "matchId",
          "type": "uint256"
        },
        {
          "indexed": false,
          "internalType": "string",
          "name": "teamA",
          "type": "string"
        },
        {
          "indexed": false,
          "internalType": "string",
          "name": "teamB",
          "type": "string"
        },
        {
          "indexed": false,
          "internalType": "uint256",
          "name": "startTime",
          "type": "uint256"
        }
      ],
      "name": "MatchCreated",
      "type": "event"
    },
    {
      "anonymous": false,
      "inputs": [
        {
          "indexed": true,
          "internalType": "uint256",
          "name": "matchId",
          "type": "uint256"
        },
        {
          "indexed": false,
          "internalType": "enum CricketBetting.MatchResult",
          "name": "result",
          "type": "uint8"
        }
      ],
      "name": "MatchFinished",
      "type": "event"
    },
    {
      "anonymous": false,
      "inputs": [
        {
          "indexed": true,
          "internalType": "uint256",
          "name": "matchId",
          "type": "uint256"
        }
      ],
      "name": "MatchLocked",
      "type": "event"
    },
    {
      "anonymous": false,
      "inputs": [
        {
          "indexed": true,
          "internalType": "uint256",
          "name": "betId",
          "type": "uint256"
        },
        {
          "indexed": true,
          "internalType": "address",
          "name": "bettor",
          "type": "address"
        },
        {
          "indexed": false,
          "internalType": "uint256",
          "name": "amount",
          "type": "uint256"
        }
      ],
      "name": "WinningsClaimed",
      "type": "event"
    },
    {
      "inputs": [],
      "name": "betCounter",
      "outputs": [
        {
          "internalType": "uint256",
          "name": "",
          "type": "uint256"
        }
      ],
      "stateMutability": "view",
      "type": "function"
    },
    {
      "inputs": [
        {
          "internalType": "uint256",
          "name": "",
          "type": "uint256"
        }
      ],
      "name": "bets",
      "outputs": [
        {
          "internalType": "uint256",
          "name": "matchId",
          "type": "uint256"
        },
        {
          "internalType": "address",
          "name": "bettor",
          "type": "address"
        },
        {
          "internalType": "enum CricketBetting.BetChoice",
          "name": "choice",
          "type": "uint8"
        },
        {
          "internalType": "uint256",
          "name": "amount",
          "type": "uint256"
        },
        {
          "internalType": "bool",
          "name": "claimed",
          "type": "bool"
        }
      ],
      "stateMutability": "view",
      "type": "function"
    },
    {
      "inputs": [
        {
          "internalType": "uint256",
          "name": "_betId",
          "type": "uint256"
        }
      ],
      "name": "claimWinnings",
      "outputs": [],
      "stateMutability": "nonpayable",
      "type": "function"
    },
    {
      "inputs": [
        {
          "internalType": "string",
          "name": "_teamA",
          "type": "string"
        },
        {
          "internalType": "string",
          "name": "_teamB",
          "type": "string"
        },
        {
          "internalType": "uint256",
          "name": "_startTime",
          "type": "uint256"
        }
      ],
      "name": "createMatch",
      "outputs": [],
      "stateMutability": "nonpayable",
      "type": "function"
    },
    {
      "inputs": [
        {
          "internalType": "uint256",
          "name": "_matchId",
          "type": "uint256"
        },
        {
          "internalType": "enum CricketBetting.MatchResult",
          "name": "_result",
          "type": "uint8"
        }
      ],
      "name": "finishMatch",
      "outputs": [],
      "stateMutability": "nonpayable",
      "type": "function"
    },
    {
      "inputs": [
        {
          "internalType": "uint256",
          "name": "_matchId",
          "type": "uint256"
        }
      ],
      "name": "lockMatch",
      "outputs": [],
      "stateMutability": "nonpayable",
      "type": "function"
    },
    {
      "inputs": [],
      "name": "matchCounter",
      "outputs": [
        {
          "internalType": "uint256",
          "name": "",
          "type": "uint256"
        }
      ],
      "stateMutability": "view",
      "type": "function"
    },
    {
      "inputs": [
        {
          "internalType": "uint256",
          "name": "",
          "type": "uint256"
        }
      ],
      "name": "matches",
      "outputs": [
        {
          "internalType": "uint256",
          "name": "id",
          "type": "uint256"
        },
        {
          "internalType": "string",
          "name": "teamA",
          "type": "string"
        },
        {
          "internalType": "string",
          "name": "teamB",
          "type": "string"
        },
        {
          "internalType": "uint256",
          "name": "startTime",
          "type": "uint256"
        },
        {
          "internalType": "bool",
          "name": "locked",
          "type": "bool"
        },
        {
          "internalType": "enum CricketBetting.MatchResult",
          "name": "result",
          "type": "uint8"
        },
        {
          "internalType": "uint256",
          "name": "poolA",
          "type": "uint256"
        },
        {
          "internalType": "uint256",
          "name": "poolB",
          "type": "uint256"
        },
        {
          "internalType": "uint256",
          "name": "poolDraw",
          "type": "uint256"
        }
      ],
      "stateMutability": "view",
      "type": "function"
    },
    {
      "inputs": [],
      "name": "minBet",
      "outputs": [
        {
          "internalType": "uint256",
          "name": "",
          "type": "uint256"
        }
      ],
      "stateMutability": "view",
      "type": "function"
    },
    {
      "inputs": [],
      "name": "owner",
      "outputs": [
        {
          "internalType": "address",
          "name": "",
          "type": "address"
        }
      ],
      "stateMutability": "view",
      "type": "function"
    },
    {
      "inputs": [
        {
          "internalType": "uint256",
          "name": "_matchId",
          "type": "uint256"
        },
        {
          "internalType": "enum CricketBetting.BetChoice",
          "name": "_choice",
          "type": "uint8"
        }
      ],
      "name": "placeBet",
      "outputs": [],
      "stateMutability": "payable",
      "type": "function"
    },
    {
      "stateMutability": "payable",
      "type": "receive"
    }
  ],
  "bytecode": "0x608060405266038d7ea4c6800060035534801561001b57600080fd5b50336000806101000a81548173ffffffffffffffffffffffffffffffffffffffff021916908373ffffffffffffffffffffffffffffffffffffffff1602179055506120708061006b6000396000f3fe6080604052600436106100a05760003560e01c8063677bd9ff11610064578063677bd9ff146101a25780638da5cb5b146101cb5780639619367d146101f6578063a416f5ab14610221578063cffd1dc71461024c578063fc43475d14610275576100a7565b806301fd1951146100ac57806303edf914146100d757806322af00fa146100f357806332bac408146101345780634768d4ef1461015d576100a7565b366100a757005b600080fd5b3480156100b857600080fd5b506100c161029e565b6040516100ce9190611188565b60405180910390f35b6100f160048036038101906100ec9190611208565b6102a4565b005b3480156100ff57600080fd5b5061011a60048036038101906101159190611248565b610605565b60405161012b959493929190611348565b60405180910390f35b34801561014057600080fd5b5061015b600480360381019061015691906114e1565b610675565b005b34801561016957600080fd5b50610184600480360381019061017f9190611248565b610880565b60405161019999989796959493929190611633565b60405180910390f35b3480156101ae57600080fd5b506101c960048036038101906101c49190611248565b6109f8565b005b3480156101d757600080fd5b506101e0610e8c565b6040516101ed91906116ce565b60405180910390f35b34801561020257600080fd5b5061020b610eb0565b6040516102189190611188565b60405180910390f35b34801561022d57600080fd5b50610236610eb6565b6040516102439190611188565b60405180910390f35b34801561025857600080fd5b50610273600480360381019061026e9190611248565b610ebc565b005b34801561028157600080fd5b5061029c6004803603810190610297919061170e565b610fa9565b005b60015481565b6003543410156102e9576040517f08c379a00000000000000000000000000000000000000000000000000000000081526004016102e09061179a565b60405180910390fd5b60006004600084815260200190815260200160002090508060040160009054906101000a900460ff1615610352576040517f08c379a000000000000000000000000000000000000000000000000000000000815260040161034990611806565b60405180910390fd5b60006003811115610366576103656112b6565b5b8160040160019054906101000a900460ff16600381111561038a576103896112b6565b5b146103ca576040517f08c379a00000000000000000000000000000000000000000000000000000000081526004016103c190611872565b60405180910390fd5b600260008154809291906103dd906118c1565b91905055506040518060a001604052808481526020013373ffffffffffffffffffffffffffffffffffffffff168152602001836002811115610422576104216112b6565b5b8152602001348152602001600015158152506005600060025481526020019081526020016000206000820151816000015560208201518160010160006101000a81548173ffffffffffffffffffffffffffffffffffffffff021916908373ffffffffffffffffffffffffffffffffffffffff16021790555060408201518160010160146101000a81548160ff021916908360028111156104c5576104c46112b6565b5b02179055506060820151816002015560808201518160030160006101000a81548160ff0219169083151502179055509050506000600281111561050b5761050a6112b6565b5b82600281111561051e5761051d6112b6565b5b0361054357348160050160008282546105379190611909565b925050819055506105ac565b60016002811115610557576105566112b6565b5b82600281111561056a576105696112b6565b5b0361058f57348160060160008282546105839190611909565b925050819055506105ab565b348160070160008282546105a39190611909565b925050819055505b5b3373ffffffffffffffffffffffffffffffffffffffff16836002547fbce2cb94279c556ec79c779d602285bd504586eaae53859ac8664e2f71c87d0885346040516105f892919061193d565b60405180910390a4505050565b60056020528060005260406000206000915090508060000154908060010160009054906101000a900473ffffffffffffffffffffffffffffffffffffffff16908060010160149054906101000a900460ff16908060020154908060030160009054906101000a900460ff16905085565b60008054906101000a900473ffffffffffffffffffffffffffffffffffffffff1673ffffffffffffffffffffffffffffffffffffffff163373ffffffffffffffffffffffffffffffffffffffff1614610703576040517f08c379a00000000000000000000000000000000000000000000000000000000081526004016106fa906119b2565b60405180910390fd5b60016000815480929190610716906118c1565b919050555060405180610120016040528060015481526020018481526020018381526020018281526020016000151581526020016000600381111561075e5761075d6112b6565b5b8152602001600081526020016000815260200160008152506004600060015481526020019081526020016000206000820151816000015560208201518160010190816107aa9190611bde565b5060408201518160020190816107c09190611bde565b506060820151816003015560808201518160040160006101000a81548160ff02191690831515021790555060a08201518160040160016101000a81548160ff02191690836003811115610816576108156112b6565b5b021790555060c0820151816005015560e0820151816006015561010082015181600701559050506001547f5e599bb02ae6f22c4b26fbdedad4adf3a26df9ff4755588276d39e830a247cc784848460405161087393929190611cb0565b60405180910390a2505050565b60046020528060005260406000206000915090508060000154908060010180546108a990611a01565b80601f01602080910402602001604051908101604052809291908181526020018280546108d590611a01565b80156109225780601f106108f757610100808354040283529160200191610922565b820191906000526020600020905b81548152906001019060200180831161090557829003601f168201915b50505050509080600201805461093790611a01565b80601f016020809104026020016040519081016040528092919081815260200182805461096390611a01565b80156109b05780601f10610985576101008083540402835291602001916109b0565b820191906000526020600020905b81548152906001019060200180831161099357829003601f168201915b5050505050908060030154908060040160009054906101000a900460ff16908060040160019054906101000a900460ff16908060050154908060060154908060070154905089565b60006005600083815260200190815260200160002090503373ffffffffffffffffffffffffffffffffffffffff168160010160009054906101000a900473ffffffffffffffffffffffffffffffffffffffff1673ffffffffffffffffffffffffffffffffffffffff1614610aa1576040517f08c379a0000000000000000000000000000000000000000000000000000000008152600401610a9890611d41565b60405180910390fd5b8060030160009054906101000a900460ff1615610af3576040517f08c379a0000000000000000000000000000000000000000000000000000000008152600401610aea90611dad565b60405180910390fd5b60006004600083600001548152602001908152602001600020905060006003811115610b2257610b216112b6565b5b8160040160019054906101000a900460ff166003811115610b4657610b456112b6565b5b03610b86576040517f08c379a0000000000000000000000000000000000000000000000000000000008152600401610b7d90611e19565b60405180910390fd5b6000806000836007015484600601548560050154610ba49190611909565b610bae9190611909565b905060016003811115610bc457610bc36112b6565b5b8460040160019054906101000a900460ff166003811115610be857610be76112b6565b5b148015610c2a575060006002811115610c0457610c036112b6565b5b8560010160149054906101000a900460ff166002811115610c2857610c276112b6565b5b145b15610c3f576001925083600501549150610d59565b60026003811115610c5357610c526112b6565b5b8460040160019054906101000a900460ff166003811115610c7757610c766112b6565b5b148015610cb9575060016002811115610c9357610c926112b6565b5b8560010160149054906101000a900460ff166002811115610cb757610cb66112b6565b5b145b15610cce576001925083600601549150610d58565b600380811115610ce157610ce06112b6565b5b8460040160019054906101000a900460ff166003811115610d0557610d046112b6565b5b148015610d465750600280811115610d2057610d1f6112b6565b5b8560010160149054906101000a900460ff166002811115610d4457610d436112b6565b5b145b15610d575760019250836007015491505b5b5b82610d99576040517f08c379a0000000000000000000000000000000000000000000000000000000008152600401610d9090611e85565b60405180910390fd5b6000606483610da89190611ea5565b605f838860020154610dba9190611ea5565b610dc49190611ea5565b610dce9190611f16565b905060018660030160006101000a81548160ff0219169083151502179055503373ffffffffffffffffffffffffffffffffffffffff166108fc829081150290604051600060405180830381858888f19350505050158015610e33573d6000803e3d6000fd5b503373ffffffffffffffffffffffffffffffffffffffff16877f5380cf6fe903b40c6d5a9e0dfbca2f3a423f0a21520b4d5947ed5169bdba946d83604051610e7b9190611188565b60405180910390a350505050505050565b60008054906101000a900473ffffffffffffffffffffffffffffffffffffffff1681565b60035481565b60025481565b60008054906101000a900473ffffffffffffffffffffffffffffffffffffffff1673ffffffffffffffffffffffffffffffffffffffff163373ffffffffffffffffffffffffffffffffffffffff1614610f4a576040517f08c379a0000000000000000000000000000000000000000000000000000000008152600401610f41906119b2565b60405180910390fd5b60016004600083815260200190815260200160002060040160006101000a81548160ff021916908315150217905550807f2f5f86d0163c8f8ac2745a053af228bf204225ec58d747c366151e05fc7a73a860405160405180910390a250565b60008054906101000a900473ffffffffffffffffffffffffffffffffffffffff1673ffffffffffffffffffffffffffffffffffffffff163373ffffffffffffffffffffffffffffffffffffffff1614611037576040517f08c379a000000000000000000000000000000000000000000000000000000000815260040161102e906119b2565b60405180910390fd5b60006004600084815260200190815260200160002090508060040160009054906101000a900460ff1661109f576040517f08c379a000000000000000000000000000000000000000000000000000000000815260040161109690611f93565b60405180910390fd5b600060038111156110b3576110b26112b6565b5b8260038111156110c6576110c56112b6565b5b03611106576040517f08c379a00000000000000000000000000000000000000000000000000000000081526004016110fd90611fff565b60405180910390fd5b818160040160016101000a81548160ff0219169083600381111561112d5761112c6112b6565b5b0217905550827fc56cc25002a68c576d68b2f6767f5a73677b55bcb4dda4f5b873c4660d7af4c783604051611162919061201f565b60405180910390a2505050565b6000819050919050565b6111828161116f565b82525050565b600060208201905061119d6000830184611179565b92915050565b6000604051905090565b600080fd5b600080fd5b6111c08161116f565b81146111cb57600080fd5b50565b6000813590506111dd816111b7565b92915050565b600381106111f057600080fd5b50565b600081359050611202816111e3565b92915050565b6000806040838503121561121f5761121e6111ad565b5b600061122d858286016111ce565b925050602061123e858286016111f3565b9150509250929050565b60006020828403121561125e5761125d6111ad565b5b600061126c848285016111ce565b91505092915050565b600073ffffffffffffffffffffffffffffffffffffffff82169050919050565b60006112a082611275565b9050919050565b6112b081611295565b82525050565b7f4e487b7100000000000000000000000000000000000000000000000000000000600052602160045260246000fd5b600381106112f6576112f56112b6565b5b50565b6000819050611307826112e5565b919050565b6000611317826112f9565b9050919050565b6113278161130c565b82525050565b60008115159050919050565b6113428161132d565b82525050565b600060a08201905061135d6000830188611179565b61136a60208301876112a7565b611377604083018661131e565b6113846060830185611179565b6113916080830184611339565b9695505050505050565b600080fd5b600080fd5b6000601f19601f8301169050919050565b7f4e487b7100000000000000000000000000000000000000000000000000000000600052604160045260246000fd5b6113ee826113a5565b810181811067ffffffffffffffff8211171561140d5761140c6113b6565b5b80604052505050565b60006114206111a3565b905061142c82826113e5565b919050565b600067ffffffffffffffff82111561144c5761144b6113b6565b5b611455826113a5565b9050602081019050919050565b82818337600083830152505050565b600061148461147f84611431565b611416565b9050828152602081018484840111156114a05761149f6113a0565b5b6114ab848285611462565b509392505050565b600082601f8301126114c8576114c761139b565b5b81356114d8848260208601611471565b91505092915050565b6000806000606084860312156114fa576114f96111ad565b5b600084013567ffffffffffffffff811115611518576115176111b2565b5b611524868287016114b3565b935050602084013567ffffffffffffffff811115611545576115446111b2565b5b611551868287016114b3565b9250506040611562868287016111ce565b9150509250925092565b600081519050919050565b600082825260208201905092915050565b60005b838110156115a657808201518184015260208101905061158b565b60008484015250505050565b60006115bd8261156c565b6115c78185611577565b93506115d7818560208601611588565b6115e0816113a5565b840191505092915050565b600481106115fc576115fb6112b6565b5b50565b600081905061160d826115eb565b919050565b600061161d826115ff565b9050919050565b61162d81611612565b82525050565b600061012082019050611649600083018c611179565b818103602083015261165b818b6115b2565b9050818103604083015261166f818a6115b2565b905061167e6060830189611179565b61168b6080830188611339565b61169860a0830187611624565b6116a560c0830186611179565b6116b260e0830185611179565b6116c0610100830184611179565b9a9950505050505050505050565b60006020820190506116e360008301846112a7565b92915050565b600481106116f657600080fd5b50565b600081359050611708816116e9565b92915050565b60008060408385031215611725576117246111ad565b5b6000611733858286016111ce565b9250506020611744858286016116f9565b9150509250929050565b7f42657420746f6f20736d616c6c00000000000000000000000000000000000000600082015250565b6000611784600d83611577565b915061178f8261174e565b602082019050919050565b600060208201905081810360008301526117b381611777565b9050919050565b7f42657474696e67206c6f636b6564000000000000000000000000000000000000600082015250565b60006117f0600e83611577565b91506117fb826117ba565b602082019050919050565b6000602082019050818103600083015261181f816117e3565b9050919050565b7f4d617463682066696e6973686564000000000000000000000000000000000000600082015250565b600061185c600e83611577565b915061186782611826565b602082019050919050565b6000602082019050818103600083015261188b8161184f565b9050919050565b7f4e487b7100000000000000000000000000000000000000000000000000000000600052601160045260246000fd5b60006118cc8261116f565b91507fffffffffffffffffffffffffffffffffffffffffffffffffffffffffffffffff82036118fe576118fd611892565b5b600182019050919050565b60006119148261116f565b915061191f8361116f565b925082820190508082111561193757611936611892565b5b92915050565b6000604082019050611952600083018561131e565b61195f6020830184611179565b9392505050565b7f4f6e6c79206f776e657200000000000000000000000000000000000000000000600082015250565b600061199c600a83611577565b91506119a782611966565b602082019050919050565b600060208201905081810360008301526119cb8161198f565b9050919050565b7f4e487b7100000000000000000000000000000000000000000000000000000000600052602260045260246000fd5b60006002820490506001821680611a1957607f821691505b602082108103611a2c57611a2b6119d2565b5b50919050565b60008190508160005260206000209050919050565b60006020601f8301049050919050565b600082821b905092915050565b600060088302611a947fffffffffffffffffffffffffffffffffffffffffffffffffffffffffffffffff82611a57565b611a9e8683611a57565b95508019841693508086168417925050509392505050565b6000819050919050565b6000611adb611ad6611ad18461116f565b611ab6565b61116f565b9050919050565b6000819050919050565b611af583611ac0565b611b09611b0182611ae2565b848454611a64565b825550505050565b600090565b611b1e611b11565b611b29818484611aec565b505050565b5b81811015611b4d57611b42600082611b16565b600181019050611b2f565b5050565b601f821115611b9257611b6381611a32565b611b6c84611a47565b81016020851015611b7b578190505b611b8f611b8785611a47565b830182611b2e565b50505b505050565b600082821c905092915050565b6000611bb560001984600802611b97565b1980831691505092915050565b6000611bce8383611ba4565b9150826002028217905092915050565b611be78261156c565b67ffffffffffffffff811115611c0057611bff6113b6565b5b611c0a8254611a01565b611c15828285611b51565b600060209050601f831160018114611c485760008415611c36578287015190505b611c408582611bc2565b865550611ca8565b601f198416611c5686611a32565b60005b82811015611c7e57848901518255600182019150602085019450602081019050611c59565b86831015611c9b5784890151611c97601f891682611ba4565b8355505b6001600288020188555050505b505050505050565b60006060820190508181036000830152611cca81866115b2565b90508181036020830152611cde81856115b2565b9050611ced6040830184611179565b949350505050565b7f4e6f7420796f7572206265740000000000000000000000000000000000000000600082015250565b6000611d2b600c83611577565b9150611d3682611cf5565b602082019050919050565b60006020820190508181036000830152611d5a81611d1e565b9050919050565b7f416c726561647920636c61696d65640000000000000000000000000000000000600082015250565b6000611d97600f83611577565b9150611da282611d61565b602082019050919050565b60006020820190508181036000830152611dc681611d8a565b9050919050565b7f4d61746368206e6f742066696e69736865640000000000000000000000000000600082015250565b6000611e03601283611577565b9150611e0e82611dcd565b602082019050919050565b60006020820190508181036000830152611e3281611df6565b9050919050565b7f426574206c6f7374000000000000000000000000000000000000000000000000600082015250565b6000611e6f600883611577565b9150611e7a82611e39565b602082019050919050565b60006020820190508181036000830152611e9e81611e62565b9050919050565b6000611eb08261116f565b9150611ebb8361116f565b9250828202611ec98161116f565b91508282048414831517611ee057611edf611892565b5b5092915050565b7f4e487b7100000000000000000000000000000000000000000000000000000000600052601260045260246000fd5b6000611f218261116f565b9150611f2c8361116f565b925082611f3c57611f3b611ee7565b5b828204905092915050565b7f4d61746368206e6f74206c6f636b656400000000000000000000000000000000600082015250565b6000611f7d601083611577565b9150611f8882611f47565b602082019050919050565b60006020820190508181036000830152611fac81611f70565b9050919050565b7f496e76616c696420726573756c74000000000000000000000000000000000000600082015250565b6000611fe9600e83611577565b9150611ff482611fb3565b602082019050919050565b6000602082019050818103600083015261201881611fdc565b9050919050565b60006020820190506120346000830184611624565b9291505056fea26469706673582212205745826e06c3b44f1441cbeaeaf7702d351a1edf391e51f9458b00414766ba8564736f6c63430008130033",
  "linkReferences": {},
  "deployedLinkReferences": {}
}