{
  "_format": "hh-sol-artifact-1",
  "contractName": "Roulette",
  "sourceName": "contracts/Roulette.sol",
  "abi": [
    {
      "inputs": [],
      "stateMutability": "nonpayable",
      "type": "constructor"
    },
    {
      "anonymous": false,
      "inputs": [
        {
          "indexed": true,
          "internalType": "uint256",
          "name": "betId",
          "type": "uint256"
        },
        {
          "indexed": true,
          "internalType": "address",
          "name": "player",
          "type": "address"
        },
        {
          "indexed": false,
          "internalType": "uint256",
          "name": "amount",
          "type": "uint256"
        },
        {
          "indexed": false,
          "internalType": "enum Roulette.BetType",
          "name": "betType",
          "type": "uint8"
        },
        {
          "indexed": false,
          "internalType": "uint256",
          "name": "value",
          "type": "uint256"
        }
      ],
      "name": "BetPlaced",
      "type": "event"
    },
    {
      "anonymous": false,
      "inputs": [
        {
          "indexed": true,
          "internalType": "uint256",
          "name": "betId",
          "type": "uint256"
        },
        {
          "indexed": true,
          "internalType": "address",
          "name": "player",
          "type": "address"
        },
        {
          "indexed": false,
          "internalType": "uint256",
          "name": "winnings",
          "type": "uint256"
        },
        {
          "indexed": false,
          "internalType": "uint256",
          "name": "result",
          "type": "uint256"
        }
      ],
      "name": "BetSettled",
      "type": "event"
    },
    {
      "inputs": [],
      "name": "betCounter",
      "outputs": [
        {
          "internalType": "uint256",
          "name": "",
          "type": "uint256"
        }
      ],
      "stateMutability": "view",
      "type": "function"
    },
    {
      "inputs": [
        {
          "internalType": "uint256",
          "name": "",
          "type": "uint256"
        }
      ],
      "name": "bets",
      "outputs": [
        {
          "internalType": "address",
          "name": "player",
          "type": "address"
        },
        {
          "internalType": "uint256",
          "name": "amount",
          "type": "uint256"
        },
        {
          "internalType": "enum Roulette.BetType",
          "name": "betType",
          "type": "uint8"
        },
        {
          "internalType": "uint256",
          "name": "value",
          "type": "uint256"
        },
        {
          "internalType": "bool",
          "name": "settled",
          "type": "bool"
        }
      ],
      "stateMutability": "view",
      "type": "function"
    },
    {
      "inputs": [],
      "name": "fundContract",
      "outputs": [],
      "stateMutability": "payable",
      "type": "function"
    },
    {
      "inputs": [],
      "name": "getContractBalance",
      "outputs": [
        {
          "internalType": "uint256",
          "name": "",
          "type": "uint256"
        }
      ],
      "stateMutability": "view",
      "type": "function"
    },
    {
      "inputs": [
        {
          "internalType": "uint256",
          "name": "_number",
          "type": "uint256"
        }
      ],
      "name": "isRed",
      "outputs": [
        {
          "internalType": "bool",
          "name": "",
          "type": "bool"
        }
      ],
      "stateMutability": "pure",
      "type": "function"
    },
    {
      "inputs": [],
      "name": "maxBet",
      "outputs": [
        {
          "internalType": "uint256",
          "name": "",
          "type": "uint256"
        }
      ],
      "stateMutability": "view",
      "type": "function"
    },
    {
      "inputs": [],
      "name": "minBet",
      "outputs": [
        {
          "internalType": "uint256",
          "name": "",
          "type": "uint256"
        }
      ],
      "stateMutability": "view",
      "type": "function"
    },
    {
      "inputs": [],
      "name": "owner",
      "outputs": [
        {
          "internalType": "address",
          "name": "",
          "type": "address"
        }
      ],
      "stateMutability": "view",
      "type": "function"
    },
    {
      "inputs": [
        {
          "internalType": "enum Roulette.BetType",
          "name": "_betType",
          "type": "uint8"
        },
        {
          "internalType": "uint256",
          "name": "_value",
          "type": "uint256"
        }
      ],
      "name": "placeBet",
      "outputs": [],
      "stateMutability": "payable",
      "type": "function"
    },
    {
      "inputs": [
        {
          "internalType": "uint256",
          "name": "_betId",
          "type": "uint256"
        },
        {
          "internalType": "uint256",
          "name": "_result",
          "type": "uint256"
        }
      ],
      "name": "spin",
      "outputs": [],
      "stateMutability": "nonpayable",
      "type": "function"
    },
    {
      "inputs": [
        {
          "internalType": "uint256",
          "name": "_amount",
          "type": "uint256"
        }
      ],
      "name": "withdraw",
      "outputs": [],
      "stateMutability": "nonpayable",
      "type": "function"
    },
    {
      "stateMutability": "payable",
      "type": "receive"
    }
  ],
  "bytecode": "0x608060405266038d7ea4c68000600255670de0b6b3a764000060035534801561002757600080fd5b50336000806101000a81548173ffffffffffffffffffffffffffffffffffffffff021916908373ffffffffffffffffffffffffffffffffffffffff1602179055506112b9806100776000396000f3fe6080604052600436106100a05760003560e01c80639619367d116100645780639619367d14610197578063a416f5ab146101c2578063ab561c16146101ed578063b3cf3c6b1461022a578063bd097e2114610253578063dcb3b30e1461025d576100a7565b806322af00fa146100ac5780632e1a7d4d146100ed5780632e5b2168146101165780636f9fb98a146101415780638da5cb5b1461016c576100a7565b366100a757005b600080fd5b3480156100b857600080fd5b506100d360048036038101906100ce9190610c56565b610279565b6040516100e4959493929190610d65565b60405180910390f35b3480156100f957600080fd5b50610114600480360381019061010f9190610c56565b6102e9565b005b34801561012257600080fd5b5061012b6103e1565b6040516101389190610db8565b60405180910390f35b34801561014d57600080fd5b506101566103e7565b6040516101639190610db8565b60405180910390f35b34801561017857600080fd5b506101816103ef565b60405161018e9190610dd3565b60405180910390f35b3480156101a357600080fd5b506101ac610413565b6040516101b99190610db8565b60405180910390f35b3480156101ce57600080fd5b506101d7610419565b6040516101e49190610db8565b60405180910390f35b3480156101f957600080fd5b50610214600480360381019061020f9190610c56565b61041f565b6040516102219190610dee565b60405180910390f35b34801561023657600080fd5b50610251600480360381019061024c9190610e09565b610500565b005b61025b61096e565b005b61027760048036038101906102729190610e6e565b6109fe565b005b60046020528060005260406000206000915090508060000160009054906101000a900473ffffffffffffffffffffffffffffffffffffffff16908060010154908060020160009054906101000a900460ff16908060030154908060040160009054906101000a900460ff16905085565b60008054906101000a900473ffffffffffffffffffffffffffffffffffffffff1673ffffffffffffffffffffffffffffffffffffffff163373ffffffffffffffffffffffffffffffffffffffff1614610377576040517f08c379a000000000000000000000000000000000000000000000000000000000815260040161036e90610f0b565b60405180910390fd5b60008054906101000a900473ffffffffffffffffffffffffffffffffffffffff1673ffffffffffffffffffffffffffffffffffffffff166108fc829081150290604051600060405180830381858888f193505050501580156103dd573d6000803e3d6000fd5b5050565b60035481565b600047905090565b60008054906101000a900473ffffffffffffffffffffffffffffffffffffffff1681565b60025481565b60015481565b6000806040518061024001604052806001815260200160038152602001600581526020016007815260200160098152602001600c8152602001600e8152602001601081526020016012815260200160138152602001601581526020016017815260200160198152602001601b8152602001601e815260200160208152602001602281526020016024815250905060005b60128110156104f457838282601281106104cc576104cb610f2b565b5b6020020151036104e1576001925050506104fb565b80806104ec90610f89565b9150506104af565b5060009150505b919050565b60008054906101000a900473ffffffffffffffffffffffffffffffffffffffff1673ffffffffffffffffffffffffffffffffffffffff163373ffffffffffffffffffffffffffffffffffffffff161461058e576040517f08c379a000000000000000000000000000000000000000000000000000000000815260040161058590610f0b565b60405180910390fd5b60248111156105d2576040517f08c379a00000000000000000000000000000000000000000000000000000000081526004016105c99061101d565b60405180910390fd5b60006004600084815260200190815260200160002090508060040160009054906101000a900460ff161561063b576040517f08c379a000000000000000000000000000000000000000000000000000000000815260040161063290611089565b60405180910390fd5b60008060038111156106505761064f610cd3565b5b8260020160009054906101000a900460ff16600381111561067457610673610cd3565b5b1480156106845750828260030154145b156106a1576024826001015461069a91906110a9565b9050610861565b600160038111156106b5576106b4610cd3565b5b8260020160009054906101000a900460ff1660038111156106d9576106d8610cd3565b5b0361073657600082600301541480156106f757506106f68361041f565b5b8061071857506001826003015414801561071757506107158361041f565b155b5b15610731576002826001015461072e91906110a9565b90505b610860565b6002600381111561074a57610749610cd3565b5b8260020160009054906101000a900460ff16600381111561076e5761076d610cd3565b5b036107d8576000826003015414801561079357506000600284610791919061111a565b145b806107ba5750600182600301541480156107b9575060016002846107b7919061111a565b145b5b156107d357600282600101546107d091906110a9565b90505b61085f565b6003808111156107eb576107ea610cd3565b5b8260020160009054906101000a900460ff16600381111561080f5761080e610cd3565b5b0361085e5760008260030154148015610829575060128311155b806108445750600182600301541480156108435750601283115b5b1561085d576002826001015461085a91906110a9565b90505b5b5b5b5b60008111156108d6578160000160009054906101000a900473ffffffffffffffffffffffffffffffffffffffff1673ffffffffffffffffffffffffffffffffffffffff166108fc829081150290604051600060405180830381858888f193505050501580156108d4573d6000803e3d6000fd5b505b60018260040160006101000a81548160ff0219169083151502179055508160000160009054906101000a900473ffffffffffffffffffffffffffffffffffffffff1673ffffffffffffffffffffffffffffffffffffffff16847f11a22d497c329e14d872e0a7dac587549da712f0e005562916d7acc434cc8a32838660405161096092919061114b565b60405180910390a350505050565b60008054906101000a900473ffffffffffffffffffffffffffffffffffffffff1673ffffffffffffffffffffffffffffffffffffffff163373ffffffffffffffffffffffffffffffffffffffff16146109fc576040517f08c379a00000000000000000000000000000000000000000000000000000000081526004016109f390610f0b565b60405180910390fd5b565b6002543410158015610a1257506003543411155b610a51576040517f08c379a0000000000000000000000000000000000000000000000000000000008152600401610a48906111c0565b60405180910390fd5b6024811115610a95576040517f08c379a0000000000000000000000000000000000000000000000000000000008152600401610a8c9061122c565b60405180910390fd5b60016000815480929190610aa890610f89565b91905055506040518060a001604052803373ffffffffffffffffffffffffffffffffffffffff168152602001348152602001836003811115610aed57610aec610cd3565b5b81526020018281526020016000151581525060046000600154815260200190815260200160002060008201518160000160006101000a81548173ffffffffffffffffffffffffffffffffffffffff021916908373ffffffffffffffffffffffffffffffffffffffff1602179055506020820151816001015560408201518160020160006101000a81548160ff02191690836003811115610b9057610b8f610cd3565b5b02179055506060820151816003015560808201518160040160006101000a81548160ff0219169083151502179055509050503373ffffffffffffffffffffffffffffffffffffffff166001547f7cdde6d299ea8fdc0aceb52128ad2948a1db7494031bd05ca26c6ae74b6e33b4348585604051610c0f9392919061124c565b60405180910390a35050565b600080fd5b6000819050919050565b610c3381610c20565b8114610c3e57600080fd5b50565b600081359050610c5081610c2a565b92915050565b600060208284031215610c6c57610c6b610c1b565b5b6000610c7a84828501610c41565b91505092915050565b600073ffffffffffffffffffffffffffffffffffffffff82169050919050565b6000610cae82610c83565b9050919050565b610cbe81610ca3565b82525050565b610ccd81610c20565b82525050565b7f4e487b7100000000000000000000000000000000000000000000000000000000600052602160045260246000fd5b60048110610d1357610d12610cd3565b5b50565b6000819050610d2482610d02565b919050565b6000610d3482610d16565b9050919050565b610d4481610d29565b82525050565b60008115159050919050565b610d5f81610d4a565b82525050565b600060a082019050610d7a6000830188610cb5565b610d876020830187610cc4565b610d946040830186610d3b565b610da16060830185610cc4565b610dae6080830184610d56565b9695505050505050565b6000602082019050610dcd6000830184610cc4565b92915050565b6000602082019050610de86000830184610cb5565b92915050565b6000602082019050610e036000830184610d56565b92915050565b60008060408385031215610e2057610e1f610c1b565b5b6000610e2e85828601610c41565b9250506020610e3f85828601610c41565b9150509250929050565b60048110610e5657600080fd5b50565b600081359050610e6881610e49565b92915050565b60008060408385031215610e8557610e84610c1b565b5b6000610e9385828601610e59565b9250506020610ea485828601610c41565b9150509250929050565b600082825260208201905092915050565b7f4f6e6c79206f776e657200000000000000000000000000000000000000000000600082015250565b6000610ef5600a83610eae565b9150610f0082610ebf565b602082019050919050565b60006020820190508181036000830152610f2481610ee8565b9050919050565b7f4e487b7100000000000000000000000000000000000000000000000000000000600052603260045260246000fd5b7f4e487b7100000000000000000000000000000000000000000000000000000000600052601160045260246000fd5b6000610f9482610c20565b91507fffffffffffffffffffffffffffffffffffffffffffffffffffffffffffffffff8203610fc657610fc5610f5a565b5b600182019050919050565b7f496e76616c696420726573756c74000000000000000000000000000000000000600082015250565b6000611007600e83610eae565b915061101282610fd1565b602082019050919050565b6000602082019050818103600083015261103681610ffa565b9050919050565b7f416c726561647920736574746c65640000000000000000000000000000000000600082015250565b6000611073600f83610eae565b915061107e8261103d565b602082019050919050565b600060208201905081810360008301526110a281611066565b9050919050565b60006110b482610c20565b91506110bf83610c20565b92508282026110cd81610c20565b915082820484148315176110e4576110e3610f5a565b5b5092915050565b7f4e487b7100000000000000000000000000000000000000000000000000000000600052601260045260246000fd5b600061112582610c20565b915061113083610c20565b9250826111405761113f6110eb565b5b828206905092915050565b60006040820190506111606000830185610cc4565b61116d6020830184610cc4565b9392505050565b7f496e76616c69642062657420616d6f756e740000000000000000000000000000600082015250565b60006111aa601283610eae565b91506111b582611174565b602082019050919050565b600060208201905081810360008301526111d98161119d565b9050919050565b7f496e76616c6964206265742076616c7565000000000000000000000000000000600082015250565b6000611216601183610eae565b9150611221826111e0565b602082019050919050565b6000602082019050818103600083015261124581611209565b9050919050565b60006060820190506112616000830186610cc4565b61126e6020830185610d3b565b61127b6040830184610cc4565b94935050505056fea264697066735822122013f72e7d944d20aca96d22aa3bd68c399b59ae6192579545e535eba929dacedc64736f6c63430008130033",
  "linkReferences": {},
  "deployedLinkReferences": {}
}