{
  "_format": "hh-sol-artifact-1",
  "contractName": "Rummy",
  "sourceName": "contracts/Rummy.sol",
  "abi": [
    {
      "inputs": [],
      "stateMutability": "nonpayable",
      "type": "constructor"
    },
    {
      "anonymous": false,
      "inputs": [
        {
          "indexed": true,
          "internalType": "uint256",
          "name": "gameId",
          "type": "uint256"
        },
        {
          "indexed": true,
          "internalType": "address",
          "name": "creator",
          "type": "address"
        }
      ],
      "name": "GameCreated",
      "type": "event"
    },
    {
      "anonymous": false,
      "inputs": [
        {
          "indexed": true,
          "internalType": "uint256",
          "name": "gameId",
          "type": "uint256"
        }
      ],
      "name": "GameStarted",
      "type": "event"
    },
    {
      "anonymous": false,
      "inputs": [
        {
          "indexed": true,
          "internalType": "uint256",
          "name": "gameId",
          "type": "uint256"
        },
        {
          "indexed": true,
          "internalType": "address",
          "name": "player",
          "type": "address"
        }
      ],
      "name": "PlayerJoined",
      "type": "event"
    },
    {
      "anonymous": false,
      "inputs": [
        {
          "indexed": true,
          "internalType": "uint256",
          "name": "gameId",
          "type": "uint256"
        },
        {
          "indexed": true,
          "internalType": "address",
          "name": "winner",
          "type": "address"
        },
        {
          "indexed": false,
          "internalType": "uint256",
          "name": "prize",
          "type": "uint256"
        }
      ],
      "name": "WinnerDeclared",
      "type": "event"
    },
    {
      "inputs": [],
      "name": "createGame",
      "outputs": [],
      "stateMutability": "payable",
      "type": "function"
    },
    {
      "inputs": [
        {
          "internalType": "uint256",
          "name": "_gameId",
          "type": "uint256"
        },
        {
          "internalType": "address",
          "name": "_winner",
          "type": "address"
        }
      ],
      "name": "declareWinner",
      "outputs": [],
      "stateMutability": "nonpayable",
      "type": "function"
    },
    {
      "inputs": [],
      "name": "entryFee",
      "outputs": [
        {
          "internalType": "uint256",
          "name": "",
          "type": "uint256"
        }
      ],
      "stateMutability": "view",
      "type": "function"
    },
    {
      "inputs": [],
      "name": "gameCounter",
      "outputs": [
        {
          "internalType": "uint256",
          "name": "",
          "type": "uint256"
        }
      ],
      "stateMutability": "view",
      "type": "function"
    },
    {
      "inputs": [
        {
          "internalType": "uint256",
          "name": "",
          "type": "uint256"
        }
      ],
      "name": "games",
      "outputs": [
        {
          "internalType": "uint256",
          "name": "id",
          "type": "uint256"
        },
        {
          "internalType": "uint256",
          "name": "playerCount",
          "type": "uint256"
        },
        {
          "internalType": "uint256",
          "name": "prizePool",
          "type": "uint256"
        },
        {
          "internalType": "address",
          "name": "winner",
          "type": "address"
        },
        {
          "internalType": "enum Rummy.GameState",
          "name": "state",
          "type": "uint8"
        }
      ],
      "stateMutability": "view",
      "type": "function"
    },
    {
      "inputs": [
        {
          "internalType": "uint256",
          "name": "_gameId",
          "type": "uint256"
        }
      ],
      "name": "getGame",
      "outputs": [
        {
          "internalType": "uint256",
          "name": "id",
          "type": "uint256"
        },
        {
          "internalType": "address[4]",
          "name": "players",
          "type": "address[4]"
        },
        {
          "internalType": "uint256",
          "name": "playerCount",
          "type": "uint256"
        },
        {
          "internalType": "uint256",
          "name": "prizePool",
          "type": "uint256"
        },
        {
          "internalType": "address",
          "name": "winner",
          "type": "address"
        },
        {
          "internalType": "enum Rummy.GameState",
          "name": "state",
          "type": "uint8"
        }
      ],
      "stateMutability": "view",
      "type": "function"
    },
    {
      "inputs": [
        {
          "internalType": "uint256",
          "name": "_gameId",
          "type": "uint256"
        }
      ],
      "name": "joinGame",
      "outputs": [],
      "stateMutability": "payable",
      "type": "function"
    },
    {
      "inputs": [],
      "name": "owner",
      "outputs": [
        {
          "internalType": "address",
          "name": "",
          "type": "address"
        }
      ],
      "stateMutability": "view",
      "type": "function"
    },
    {
      "stateMutability": "payable",
      "type": "receive"
    }
  ],
  "bytecode": "0x6080604052662386f26fc1000060025534801561001b57600080fd5b50336000806101000a81548173ffffffffffffffffffffffffffffffffffffffff021916908373ffffffffffffffffffffffffffffffffffffffff1602179055506112778061006b6000396000f3fe60806040526004361061007f5760003560e01c80638da5cb5b1161004e5780638da5cb5b1461012c578063a2f77bcc14610157578063e374b09714610199578063efaa55a0146101c257610086565b8063072ea61c1461008b578063117a5b90146100b65780632e0be39a146100f75780637255d7291461012257610086565b3661008657005b600080fd5b34801561009757600080fd5b506100a06101de565b6040516100ad9190610b13565b60405180910390f35b3480156100c257600080fd5b506100dd60048036038101906100d89190610b5f565b6101e4565b6040516100ee959493929190610c44565b60405180910390f35b34801561010357600080fd5b5061010c610247565b6040516101199190610b13565b60405180910390f35b61012a61024d565b005b34801561013857600080fd5b506101416103ad565b60405161014e9190610c97565b60405180910390f35b34801561016357600080fd5b5061017e60048036038101906101799190610b5f565b6103d1565b60405161019096959493929190610d5d565b60405180910390f35b3480156101a557600080fd5b506101c060048036038101906101bb9190610dec565b610561565b005b6101dc60048036038101906101d79190610b5f565b610880565b005b60025481565b60036020528060005260406000206000915090508060000154908060050154908060060154908060070160009054906101000a900473ffffffffffffffffffffffffffffffffffffffff16908060070160149054906101000a900460ff16905085565b60015481565b6002543414610291576040517f08c379a000000000000000000000000000000000000000000000000000000000815260040161028890610e89565b60405180910390fd5b600160008154809291906102a490610ed8565b919050555060006003600060015481526020019081526020016000209050600154816000018190555033816001016000600481106102e5576102e4610f20565b5b0160006101000a81548173ffffffffffffffffffffffffffffffffffffffff021916908373ffffffffffffffffffffffffffffffffffffffff1602179055506001816005018190555034816006018190555060008160070160146101000a81548160ff0219169083600281111561035f5761035e610bcd565b5b02179055503373ffffffffffffffffffffffffffffffffffffffff166001547fc3e0f84839dc888c892a013d10c8f9d6dc05a21a879d0ce468ca558013e9121c60405160405180910390a350565b60008054906101000a900473ffffffffffffffffffffffffffffffffffffffff1681565b60006103db610ad8565b6000806000806000600360008981526020019081526020016000206040518060c0016040529081600082015481526020016001820160048060200260405190810160405280929190826004801561047d576020028201915b8160009054906101000a900473ffffffffffffffffffffffffffffffffffffffff1673ffffffffffffffffffffffffffffffffffffffff1681526020019060010190808311610433575b5050505050815260200160058201548152602001600682015481526020016007820160009054906101000a900473ffffffffffffffffffffffffffffffffffffffff1673ffffffffffffffffffffffffffffffffffffffff1673ffffffffffffffffffffffffffffffffffffffff1681526020016007820160149054906101000a900460ff16600281111561051557610514610bcd565b5b600281111561052757610526610bcd565b5b815250509050806000015181602001518260400151836060015184608001518560a001519650965096509650965096505091939550919395565b60008054906101000a900473ffffffffffffffffffffffffffffffffffffffff1673ffffffffffffffffffffffffffffffffffffffff163373ffffffffffffffffffffffffffffffffffffffff16146105ef576040517f08c379a00000000000000000000000000000000000000000000000000000000081526004016105e690610f9b565b60405180910390fd5b60006003600084815260200190815260200160002090506001600281111561061a57610619610bcd565b5b8160070160149054906101000a900460ff16600281111561063e5761063d610bcd565b5b1461067e576040517f08c379a000000000000000000000000000000000000000000000000000000000815260040161067590611007565b60405180910390fd5b6000805b6004811015610711578373ffffffffffffffffffffffffffffffffffffffff168360010182600481106106b8576106b7610f20565b5b0160009054906101000a900473ffffffffffffffffffffffffffffffffffffffff1673ffffffffffffffffffffffffffffffffffffffff16036106fe5760019150610711565b808061070990610ed8565b915050610682565b5080610752576040517f08c379a000000000000000000000000000000000000000000000000000000000815260040161074990611073565b60405180910390fd5b60006064605a84600601546107679190611093565b6107719190611104565b9050838360070160006101000a81548173ffffffffffffffffffffffffffffffffffffffff021916908373ffffffffffffffffffffffffffffffffffffffff16021790555060028360070160146101000a81548160ff021916908360028111156107de576107dd610bcd565b5b02179055508373ffffffffffffffffffffffffffffffffffffffff166108fc829081150290604051600060405180830381858888f19350505050158015610829573d6000803e3d6000fd5b508373ffffffffffffffffffffffffffffffffffffffff16857f7ed5face07afb2b0e99df53523951350d2a3d4f5d105a0dd2110703efe399537836040516108719190610b13565b60405180910390a35050505050565b60025434146108c4576040517f08c379a00000000000000000000000000000000000000000000000000000000081526004016108bb90610e89565b60405180910390fd5b6000600360008381526020019081526020016000209050600060028111156108ef576108ee610bcd565b5b8160070160149054906101000a900460ff16600281111561091357610912610bcd565b5b14610953576040517f08c379a000000000000000000000000000000000000000000000000000000000815260040161094a90611181565b60405180910390fd5b600481600501541061099a576040517f08c379a0000000000000000000000000000000000000000000000000000000008152600401610991906111ed565b60405180910390fd5b33816001018260050154600481106109b5576109b4610f20565b5b0160006101000a81548173ffffffffffffffffffffffffffffffffffffffff021916908373ffffffffffffffffffffffffffffffffffffffff160217905550806005016000815480929190610a0990610ed8565b919050555034816006016000828254610a22919061120d565b925050819055503373ffffffffffffffffffffffffffffffffffffffff16827f87969bc7faf902221a147b95ceba76e011c5efb0339a0a8ee7a2bb82d9cfbbd660405160405180910390a36004816005015403610ad45760018160070160146101000a81548160ff02191690836002811115610aa157610aa0610bcd565b5b0217905550817f50ad08f58a27f2851d7e3a1b3a6a46b290f2ce677e99642d30ff639721e7779060405160405180910390a25b5050565b6040518060800160405280600490602082028036833780820191505090505090565b6000819050919050565b610b0d81610afa565b82525050565b6000602082019050610b286000830184610b04565b92915050565b600080fd5b610b3c81610afa565b8114610b4757600080fd5b50565b600081359050610b5981610b33565b92915050565b600060208284031215610b7557610b74610b2e565b5b6000610b8384828501610b4a565b91505092915050565b600073ffffffffffffffffffffffffffffffffffffffff82169050919050565b6000610bb782610b8c565b9050919050565b610bc781610bac565b82525050565b7f4e487b7100000000000000000000000000000000000000000000000000000000600052602160045260246000fd5b60038110610c0d57610c0c610bcd565b5b50565b6000819050610c1e82610bfc565b919050565b6000610c2e82610c10565b9050919050565b610c3e81610c23565b82525050565b600060a082019050610c596000830188610b04565b610c666020830187610b04565b610c736040830186610b04565b610c806060830185610bbe565b610c8d6080830184610c35565b9695505050505050565b6000602082019050610cac6000830184610bbe565b92915050565b600060049050919050565b600081905092915050565b6000819050919050565b610cdb81610bac565b82525050565b6000610ced8383610cd2565b60208301905092915050565b6000602082019050919050565b610d0f81610cb2565b610d198184610cbd565b9250610d2482610cc8565b8060005b83811015610d55578151610d3c8782610ce1565b9650610d4783610cf9565b925050600181019050610d28565b505050505050565b600061012082019050610d736000830189610b04565b610d806020830188610d06565b610d8d60a0830187610b04565b610d9a60c0830186610b04565b610da760e0830185610bbe565b610db5610100830184610c35565b979650505050505050565b610dc981610bac565b8114610dd457600080fd5b50565b600081359050610de681610dc0565b92915050565b60008060408385031215610e0357610e02610b2e565b5b6000610e1185828601610b4a565b9250506020610e2285828601610dd7565b9150509250929050565b600082825260208201905092915050565b7f57726f6e6720656e747279206665650000000000000000000000000000000000600082015250565b6000610e73600f83610e2c565b9150610e7e82610e3d565b602082019050919050565b60006020820190508181036000830152610ea281610e66565b9050919050565b7f4e487b7100000000000000000000000000000000000000000000000000000000600052601160045260246000fd5b6000610ee382610afa565b91507fffffffffffffffffffffffffffffffffffffffffffffffffffffffffffffffff8203610f1557610f14610ea9565b5b600182019050919050565b7f4e487b7100000000000000000000000000000000000000000000000000000000600052603260045260246000fd5b7f4f6e6c79206f776e657200000000000000000000000000000000000000000000600082015250565b6000610f85600a83610e2c565b9150610f9082610f4f565b602082019050919050565b60006020820190508181036000830152610fb481610f78565b9050919050565b7f47616d65206e6f7420706c6179696e6700000000000000000000000000000000600082015250565b6000610ff1601083610e2c565b9150610ffc82610fbb565b602082019050919050565b6000602082019050818103600083015261102081610fe4565b9050919050565b7f496e76616c69642077696e6e6572000000000000000000000000000000000000600082015250565b600061105d600e83610e2c565b915061106882611027565b602082019050919050565b6000602082019050818103600083015261108c81611050565b9050919050565b600061109e82610afa565b91506110a983610afa565b92508282026110b781610afa565b915082820484148315176110ce576110cd610ea9565b5b5092915050565b7f4e487b7100000000000000000000000000000000000000000000000000000000600052601260045260246000fd5b600061110f82610afa565b915061111a83610afa565b92508261112a576111296110d5565b5b828204905092915050565b7f47616d65206e6f7420617661696c61626c650000000000000000000000000000600082015250565b600061116b601283610e2c565b915061117682611135565b602082019050919050565b6000602082019050818103600083015261119a8161115e565b9050919050565b7f47616d652066756c6c0000000000000000000000000000000000000000000000600082015250565b60006111d7600983610e2c565b91506111e2826111a1565b602082019050919050565b60006020820190508181036000830152611206816111ca565b9050919050565b600061121882610afa565b915061122383610afa565b925082820190508082111561123b5761123a610ea9565b5b9291505056fea2646970667358221220770b20d74de237620b87270ccecaf306ad2010f3ad009d78e7ee28dc012197bf64736f6c63430008130033",
  "linkReferences": {},
  "deployedLinkReferences": {}
}